{
	"data": {
		"bytecode": {
			"linkReferences": {},
			"object": "6080604052603380546001600160a01b0319166e0c2e074ec69a0dfb2997ba6c7d2e1e1790557f7f2ce995617d2816b426c5c8698c5ec2952f7a34bb10f38326f74933d58936976034557fe84f90570f13fe09f288f2411ff9cf50da611ed0c7db7f73d48053ffc974d39660365534801561007957600080fd5b50610be7806100896000396000f3fe608060405234801561001057600080fd5b50600436106100ea5760003560e01c8063ab2059931161008c578063c4856cd911610066578063c4856cd9146101d3578063da84b1ed146101db578063e2b4ce97146101e3578063f40b51f8146101eb576100ea565b8063ab20599314610180578063b221f31614610188578063b242e534146101a5576100ea565b8063715018a6116100c8578063715018a6146101445780637d73b2311461014c578063877337b0146101705780638da5cb5b14610178576100ea565b80631efd0299146100ef5780632121dc75146101095780633bfec25414610125575b600080fd5b6100f7610208565b60408051918252519081900360200190f35b610111610219565b604080519115158252519081900360200190f35b6101426004803603602081101561013b57600080fd5b5035610229565b005b610142610321565b61015461041f565b604080516001600160a01b039092168252519081900360200190f35b6100f761042e565b610154610434565b610111610443565b6101426004803603602081101561019e57600080fd5b503561044c565b610142600480360360408110156101bb57600080fd5b506001600160a01b038135169060200135151561053c565b6100f76106f6565b6100f76106fc565b6100f7610702565b6101426004803603602081101561020157600080fd5b5035610708565b60006102146038610773565b905090565b603554600160a01b900460ff1690565b610232336107a9565b8061023c57503330145b610280576040805162461bcd60e51b815260206004820152601060248201526f37b7363c9037bbb732b93e3e39b2b63360811b604482015290519081900360640190fd5b6037548111156102d2576040805162461bcd60e51b81526020600482015260186024820152771bdd5d081bd9881c985b99d9481b1bd85908185b5bdd5b9d60421b604482015290519081900360640190fd5b6102e360388263ffffffff6107bd16565b604080513381526020810183905281517f0b05243483e17c3f3377aee82b7d47e5700b48288695fc08b7ecc2759afa44ef929181900390910190a150565b61032a336107a9565b610374576040805162461bcd60e51b815260206004820152601660248201527539b2b73232b91034b9903737ba1030b71037bbb732b960511b604482015290519081900360640190fd5b603554600160a01b900460ff166103d2576040805162461bcd60e51b815260206004820152601d60248201527f6f776e657273686970206973206e6f74207472616e7366657261626c65000000604482015290519081900360640190fd5b603580546001600160a01b0319169055604080516000808252602082015281517f850b3df64837d7d518b45f5aa64d104652c3b80eb5b34a8e3d9eb666cb7cdea5929181900390910190a1565b6033546001600160a01b031690565b60365490565b6035546001600160a01b031690565b603c5460ff1690565b610455336107a9565b8061045f57503330145b6104a3576040805162461bcd60e51b815260206004820152601060248201526f37b7363c9037bbb732b93e3e39b2b63360811b604482015290519081900360640190fd5b6037548111156104f5576040805162461bcd60e51b81526020600482015260186024820152771bdd5d081bd9881c985b99d9481b1bd85908185b5bdd5b9d60421b604482015290519081900360640190fd5b61050660388263ffffffff61082616565b6040805182815290517fc178d379965e5657b6fc57494e392f121a14119215dfb422aad7db4cc03f2d109181900360200190a150565b610545336107a9565b61058f576040805162461bcd60e51b815260206004820152601660248201527539b2b73232b91034b9903737ba1030b71037bbb732b960511b604482015290519081900360640190fd5b603554600160a01b900460ff166105ed576040805162461bcd60e51b815260206004820152601d60248201527f6f776e657273686970206973206e6f74207472616e7366657261626c65000000604482015290519081900360640190fd5b6001600160a01b0382166106325760405162461bcd60e51b8152600401808060200182810382526023815260200180610b906023913960400191505060405180910390fd5b6035805460ff60a01b1916600160a01b831515021790558061068b57604080516001600160a01b038416815290517f808639ff9c8e4732d60b6c2330de498035416d229f27a77d259680895efec1229181900360200190a15b603554604080516001600160a01b039283168152918416602083015280517f850b3df64837d7d518b45f5aa64d104652c3b80eb5b34a8e3d9eb666cb7cdea59281900390910190a150603580546001600160a01b0319166001600160a01b0392909216919091179055565b603b5490565b60385490565b60345490565b61071133610887565b610762576040805162461bcd60e51b815260206004820152601a60248201527f73656e646572206973206e6f74206120636f6e74726f6c6c6572000000000000604482015290519081900360640190fd5b6102e360388263ffffffff61091b16565b600281015460009061078e906201518063ffffffff61096f16565b42111561079d575080546107a4565b5060018101545b919050565b6035546001600160a01b0390811691161490565b600482015460ff161561080b576040805162461bcd60e51b81526020600482015260116024820152701b1a5b5a5d08185b1c9958591e481cd95d607a1b604482015290519081900360640190fd5b61081582826109d0565b50600401805460ff19166001179055565b600482015460ff1661087f576040805162461bcd60e51b815260206004820152601960248201527f6c696d6974206861736e2774206265656e207365742079657400000000000000604482015290519081900360640190fd5b600390910155565b60006108946034546109f3565b6001600160a01b031663b429afeb836040518263ffffffff1660e01b815260040180826001600160a01b03166001600160a01b0316815260200191505060206040518083038186803b1580156108e957600080fd5b505afa1580156108fd573d6000803e3d6000fd5b505050506040513d602081101561091357600080fd5b505192915050565b8082600301541461095d5760405162461bcd60e51b8152600401808060200182810382526022815260200180610b6e6022913960400191505060405180910390fd5b61096b8283600301546109d0565b5050565b6000828201838110156109c9576040805162461bcd60e51b815260206004820152601b60248201527f536166654d6174683a206164646974696f6e206f766572666c6f770000000000604482015290519081900360640190fd5b9392505050565b6109d982610b14565b808255600182015481101561096b57815460018301555050565b6033546000906001600160a01b0316610a53576040805162461bcd60e51b815260206004820152601d60248201527f454e535265736f6c7661626c65206e6f7420696e697469616c697a6564000000604482015290519081900360640190fd5b60335460408051630178b8bf60e01b81526004810185905290516001600160a01b0390921691630178b8bf91602480820192602092909190829003018186803b158015610a9f57600080fd5b505afa158015610ab3573d6000803e3d6000fd5b505050506040513d6020811015610ac957600080fd5b505160408051631d9dabef60e11b81526004810185905290516001600160a01b0390921691633b3b57de91602480820192602092909190829003018186803b1580156108e957600080fd5b6002810154610b2c906201518063ffffffff61096f16565b421115610b6a57426002820155805460018201556040517fe93bc25276d408d390778e7a8b926f2f67209c43ed540081b951fe128f0d3cd290600090a15b5056fe636f6e6669726d65642f7375626d6974746564206c696d6974206d69736d617463686f776e65722063616e6e6f742062652073657420746f207a65726f2061646472657373a265627a7a723158202fbea0534af1f3f15c6efc1a4658dcb82f38911ed3887ff708963f03f9c82f3d64736f6c63430005110032",
			"opcodes": "PUSH1 0x80 PUSH1 0x40 MSTORE PUSH1 0x33 DUP1 SLOAD PUSH1 0x1 PUSH1 0x1 PUSH1 0xA0 SHL SUB NOT AND PUSH15 0xC2E074EC69A0DFB2997BA6C7D2E1E OR SWAP1 SSTORE PUSH32 0x7F2CE995617D2816B426C5C8698C5EC2952F7A34BB10F38326F74933D5893697 PUSH1 0x34 SSTORE PUSH32 0xE84F90570F13FE09F288F2411FF9CF50DA611ED0C7DB7F73D48053FFC974D396 PUSH1 0x36 SSTORE CALLVALUE DUP1 ISZERO PUSH2 0x79 JUMPI PUSH1 0x0 DUP1 REVERT JUMPDEST POP PUSH2 0xBE7 DUP1 PUSH2 0x89 PUSH1 0x0 CODECOPY PUSH1 0x0 RETURN INVALID PUSH1 0x80 PUSH1 0x40 MSTORE CALLVALUE DUP1 ISZERO PUSH2 0x10 JUMPI PUSH1 0x0 DUP1 REVERT JUMPDEST POP PUSH1 0x4 CALLDATASIZE LT PUSH2 0xEA JUMPI PUSH1 0x0 CALLDATALOAD PUSH1 0xE0 SHR DUP1 PUSH4 0xAB205993 GT PUSH2 0x8C JUMPI DUP1 PUSH4 0xC4856CD9 GT PUSH2 0x66 JUMPI DUP1 PUSH4 0xC4856CD9 EQ PUSH2 0x1D3 JUMPI DUP1 PUSH4 0xDA84B1ED EQ PUSH2 0x1DB JUMPI DUP1 PUSH4 0xE2B4CE97 EQ PUSH2 0x1E3 JUMPI DUP1 PUSH4 0xF40B51F8 EQ PUSH2 0x1EB JUMPI PUSH2 0xEA JUMP JUMPDEST DUP1 PUSH4 0xAB205993 EQ PUSH2 0x180 JUMPI DUP1 PUSH4 0xB221F316 EQ PUSH2 0x188 JUMPI DUP1 PUSH4 0xB242E534 EQ PUSH2 0x1A5 JUMPI PUSH2 0xEA JUMP JUMPDEST DUP1 PUSH4 0x715018A6 GT PUSH2 0xC8 JUMPI DUP1 PUSH4 0x715018A6 EQ PUSH2 0x144 JUMPI DUP1 PUSH4 0x7D73B231 EQ PUSH2 0x14C JUMPI DUP1 PUSH4 0x877337B0 EQ PUSH2 0x170 JUMPI DUP1 PUSH4 0x8DA5CB5B EQ PUSH2 0x178 JUMPI PUSH2 0xEA JUMP JUMPDEST DUP1 PUSH4 0x1EFD0299 EQ PUSH2 0xEF JUMPI DUP1 PUSH4 0x2121DC75 EQ PUSH2 0x109 JUMPI DUP1 PUSH4 0x3BFEC254 EQ PUSH2 0x125 JUMPI JUMPDEST PUSH1 0x0 DUP1 REVERT JUMPDEST PUSH2 0xF7 PUSH2 0x208 JUMP JUMPDEST PUSH1 0x40 DUP1 MLOAD SWAP2 DUP3 MSTORE MLOAD SWAP1 DUP2 SWAP1 SUB PUSH1 0x20 ADD SWAP1 RETURN JUMPDEST PUSH2 0x111 PUSH2 0x219 JUMP JUMPDEST PUSH1 0x40 DUP1 MLOAD SWAP2 ISZERO ISZERO DUP3 MSTORE MLOAD SWAP1 DUP2 SWAP1 SUB PUSH1 0x20 ADD SWAP1 RETURN JUMPDEST PUSH2 0x142 PUSH1 0x4 DUP1 CALLDATASIZE SUB PUSH1 0x20 DUP2 LT ISZERO PUSH2 0x13B JUMPI PUSH1 0x0 DUP1 REVERT JUMPDEST POP CALLDATALOAD PUSH2 0x229 JUMP JUMPDEST STOP JUMPDEST PUSH2 0x142 PUSH2 0x321 JUMP JUMPDEST PUSH2 0x154 PUSH2 0x41F JUMP JUMPDEST PUSH1 0x40 DUP1 MLOAD PUSH1 0x1 PUSH1 0x1 PUSH1 0xA0 SHL SUB SWAP1 SWAP3 AND DUP3 MSTORE MLOAD SWAP1 DUP2 SWAP1 SUB PUSH1 0x20 ADD SWAP1 RETURN JUMPDEST PUSH2 0xF7 PUSH2 0x42E JUMP JUMPDEST PUSH2 0x154 PUSH2 0x434 JUMP JUMPDEST PUSH2 0x111 PUSH2 0x443 JUMP JUMPDEST PUSH2 0x142 PUSH1 0x4 DUP1 CALLDATASIZE SUB PUSH1 0x20 DUP2 LT ISZERO PUSH2 0x19E JUMPI PUSH1 0x0 DUP1 REVERT JUMPDEST POP CALLDATALOAD PUSH2 0x44C JUMP JUMPDEST PUSH2 0x142 PUSH1 0x4 DUP1 CALLDATASIZE SUB PUSH1 0x40 DUP2 LT ISZERO PUSH2 0x1BB JUMPI PUSH1 0x0 DUP1 REVERT JUMPDEST POP PUSH1 0x1 PUSH1 0x1 PUSH1 0xA0 SHL SUB DUP2 CALLDATALOAD AND SWAP1 PUSH1 0x20 ADD CALLDATALOAD ISZERO ISZERO PUSH2 0x53C JUMP JUMPDEST PUSH2 0xF7 PUSH2 0x6F6 JUMP JUMPDEST PUSH2 0xF7 PUSH2 0x6FC JUMP JUMPDEST PUSH2 0xF7 PUSH2 0x702 JUMP JUMPDEST PUSH2 0x142 PUSH1 0x4 DUP1 CALLDATASIZE SUB PUSH1 0x20 DUP2 LT ISZERO PUSH2 0x201 JUMPI PUSH1 0x0 DUP1 REVERT JUMPDEST POP CALLDATALOAD PUSH2 0x708 JUMP JUMPDEST PUSH1 0x0 PUSH2 0x214 PUSH1 0x38 PUSH2 0x773 JUMP JUMPDEST SWAP1 POP SWAP1 JUMP JUMPDEST PUSH1 0x35 SLOAD PUSH1 0x1 PUSH1 0xA0 SHL SWAP1 DIV PUSH1 0xFF AND SWAP1 JUMP JUMPDEST PUSH2 0x232 CALLER PUSH2 0x7A9 JUMP JUMPDEST DUP1 PUSH2 0x23C JUMPI POP CALLER ADDRESS EQ JUMPDEST PUSH2 0x280 JUMPI PUSH1 0x40 DUP1 MLOAD PUSH3 0x461BCD PUSH1 0xE5 SHL DUP2 MSTORE PUSH1 0x20 PUSH1 0x4 DUP3 ADD MSTORE PUSH1 0x10 PUSH1 0x24 DUP3 ADD MSTORE PUSH16 0x37B7363C9037BBB732B93E3E39B2B633 PUSH1 0x81 SHL PUSH1 0x44 DUP3 ADD MSTORE SWAP1 MLOAD SWAP1 DUP2 SWAP1 SUB PUSH1 0x64 ADD SWAP1 REVERT JUMPDEST PUSH1 0x37 SLOAD DUP2 GT ISZERO PUSH2 0x2D2 JUMPI PUSH1 0x40 DUP1 MLOAD PUSH3 0x461BCD PUSH1 0xE5 SHL DUP2 MSTORE PUSH1 0x20 PUSH1 0x4 DUP3 ADD MSTORE PUSH1 0x18 PUSH1 0x24 DUP3 ADD MSTORE PUSH24 0x1BDD5D081BD9881C985B99D9481B1BD85908185B5BDD5B9D PUSH1 0x42 SHL PUSH1 0x44 DUP3 ADD MSTORE SWAP1 MLOAD SWAP1 DUP2 SWAP1 SUB PUSH1 0x64 ADD SWAP1 REVERT JUMPDEST PUSH2 0x2E3 PUSH1 0x38 DUP3 PUSH4 0xFFFFFFFF PUSH2 0x7BD AND JUMP JUMPDEST PUSH1 0x40 DUP1 MLOAD CALLER DUP2 MSTORE PUSH1 0x20 DUP2 ADD DUP4 SWAP1 MSTORE DUP2 MLOAD PUSH32 0xB05243483E17C3F3377AEE82B7D47E5700B48288695FC08B7ECC2759AFA44EF SWAP3 SWAP2 DUP2 SWAP1 SUB SWAP1 SWAP2 ADD SWAP1 LOG1 POP JUMP JUMPDEST PUSH2 0x32A CALLER PUSH2 0x7A9 JUMP JUMPDEST PUSH2 0x374 JUMPI PUSH1 0x40 DUP1 MLOAD PUSH3 0x461BCD PUSH1 0xE5 SHL DUP2 MSTORE PUSH1 0x20 PUSH1 0x4 DUP3 ADD MSTORE PUSH1 0x16 PUSH1 0x24 DUP3 ADD MSTORE PUSH22 0x39B2B73232B91034B9903737BA1030B71037BBB732B9 PUSH1 0x51 SHL PUSH1 0x44 DUP3 ADD MSTORE SWAP1 MLOAD SWAP1 DUP2 SWAP1 SUB PUSH1 0x64 ADD SWAP1 REVERT JUMPDEST PUSH1 0x35 SLOAD PUSH1 0x1 PUSH1 0xA0 SHL SWAP1 DIV PUSH1 0xFF AND PUSH2 0x3D2 JUMPI PUSH1 0x40 DUP1 MLOAD PUSH3 0x461BCD PUSH1 0xE5 SHL DUP2 MSTORE PUSH1 0x20 PUSH1 0x4 DUP3 ADD MSTORE PUSH1 0x1D PUSH1 0x24 DUP3 ADD MSTORE PUSH32 0x6F776E657273686970206973206E6F74207472616E7366657261626C65000000 PUSH1 0x44 DUP3 ADD MSTORE SWAP1 MLOAD SWAP1 DUP2 SWAP1 SUB PUSH1 0x64 ADD SWAP1 REVERT JUMPDEST PUSH1 0x35 DUP1 SLOAD PUSH1 0x1 PUSH1 0x1 PUSH1 0xA0 SHL SUB NOT AND SWAP1 SSTORE PUSH1 0x40 DUP1 MLOAD PUSH1 0x0 DUP1 DUP3 MSTORE PUSH1 0x20 DUP3 ADD MSTORE DUP2 MLOAD PUSH32 0x850B3DF64837D7D518B45F5AA64D104652C3B80EB5B34A8E3D9EB666CB7CDEA5 SWAP3 SWAP2 DUP2 SWAP1 SUB SWAP1 SWAP2 ADD SWAP1 LOG1 JUMP JUMPDEST PUSH1 0x33 SLOAD PUSH1 0x1 PUSH1 0x1 PUSH1 0xA0 SHL SUB AND SWAP1 JUMP JUMPDEST PUSH1 0x36 SLOAD SWAP1 JUMP JUMPDEST PUSH1 0x35 SLOAD PUSH1 0x1 PUSH1 0x1 PUSH1 0xA0 SHL SUB AND SWAP1 JUMP JUMPDEST PUSH1 0x3C SLOAD PUSH1 0xFF AND SWAP1 JUMP JUMPDEST PUSH2 0x455 CALLER PUSH2 0x7A9 JUMP JUMPDEST DUP1 PUSH2 0x45F JUMPI POP CALLER ADDRESS EQ JUMPDEST PUSH2 0x4A3 JUMPI PUSH1 0x40 DUP1 MLOAD PUSH3 0x461BCD PUSH1 0xE5 SHL DUP2 MSTORE PUSH1 0x20 PUSH1 0x4 DUP3 ADD MSTORE PUSH1 0x10 PUSH1 0x24 DUP3 ADD MSTORE PUSH16 0x37B7363C9037BBB732B93E3E39B2B633 PUSH1 0x81 SHL PUSH1 0x44 DUP3 ADD MSTORE SWAP1 MLOAD SWAP1 DUP2 SWAP1 SUB PUSH1 0x64 ADD SWAP1 REVERT JUMPDEST PUSH1 0x37 SLOAD DUP2 GT ISZERO PUSH2 0x4F5 JUMPI PUSH1 0x40 DUP1 MLOAD PUSH3 0x461BCD PUSH1 0xE5 SHL DUP2 MSTORE PUSH1 0x20 PUSH1 0x4 DUP3 ADD MSTORE PUSH1 0x18 PUSH1 0x24 DUP3 ADD MSTORE PUSH24 0x1BDD5D081BD9881C985B99D9481B1BD85908185B5BDD5B9D PUSH1 0x42 SHL PUSH1 0x44 DUP3 ADD MSTORE SWAP1 MLOAD SWAP1 DUP2 SWAP1 SUB PUSH1 0x64 ADD SWAP1 REVERT JUMPDEST PUSH2 0x506 PUSH1 0x38 DUP3 PUSH4 0xFFFFFFFF PUSH2 0x826 AND JUMP JUMPDEST PUSH1 0x40 DUP1 MLOAD DUP3 DUP2 MSTORE SWAP1 MLOAD PUSH32 0xC178D379965E5657B6FC57494E392F121A14119215DFB422AAD7DB4CC03F2D10 SWAP2 DUP2 SWAP1 SUB PUSH1 0x20 ADD SWAP1 LOG1 POP JUMP JUMPDEST PUSH2 0x545 CALLER PUSH2 0x7A9 JUMP JUMPDEST PUSH2 0x58F JUMPI PUSH1 0x40 DUP1 MLOAD PUSH3 0x461BCD PUSH1 0xE5 SHL DUP2 MSTORE PUSH1 0x20 PUSH1 0x4 DUP3 ADD MSTORE PUSH1 0x16 PUSH1 0x24 DUP3 ADD MSTORE PUSH22 0x39B2B73232B91034B9903737BA1030B71037BBB732B9 PUSH1 0x51 SHL PUSH1 0x44 DUP3 ADD MSTORE SWAP1 MLOAD SWAP1 DUP2 SWAP1 SUB PUSH1 0x64 ADD SWAP1 REVERT JUMPDEST PUSH1 0x35 SLOAD PUSH1 0x1 PUSH1 0xA0 SHL SWAP1 DIV PUSH1 0xFF AND PUSH2 0x5ED JUMPI PUSH1 0x40 DUP1 MLOAD PUSH3 0x461BCD PUSH1 0xE5 SHL DUP2 MSTORE PUSH1 0x20 PUSH1 0x4 DUP3 ADD MSTORE PUSH1 0x1D PUSH1 0x24 DUP3 ADD MSTORE PUSH32 0x6F776E657273686970206973206E6F74207472616E7366657261626C65000000 PUSH1 0x44 DUP3 ADD MSTORE SWAP1 MLOAD SWAP1 DUP2 SWAP1 SUB PUSH1 0x64 ADD SWAP1 REVERT JUMPDEST PUSH1 0x1 PUSH1 0x1 PUSH1 0xA0 SHL SUB DUP3 AND PUSH2 0x632 JUMPI PUSH1 0x40 MLOAD PUSH3 0x461BCD PUSH1 0xE5 SHL DUP2 MSTORE PUSH1 0x4 ADD DUP1 DUP1 PUSH1 0x20 ADD DUP3 DUP2 SUB DUP3 MSTORE PUSH1 0x23 DUP2 MSTORE PUSH1 0x20 ADD DUP1 PUSH2 0xB90 PUSH1 0x23 SWAP2 CODECOPY PUSH1 0x40 ADD SWAP2 POP POP PUSH1 0x40 MLOAD DUP1 SWAP2 SUB SWAP1 REVERT JUMPDEST PUSH1 0x35 DUP1 SLOAD PUSH1 0xFF PUSH1 0xA0 SHL NOT AND PUSH1 0x1 PUSH1 0xA0 SHL DUP4 ISZERO ISZERO MUL OR SWAP1 SSTORE DUP1 PUSH2 0x68B JUMPI PUSH1 0x40 DUP1 MLOAD PUSH1 0x1 PUSH1 0x1 PUSH1 0xA0 SHL SUB DUP5 AND DUP2 MSTORE SWAP1 MLOAD PUSH32 0x808639FF9C8E4732D60B6C2330DE498035416D229F27A77D259680895EFEC122 SWAP2 DUP2 SWAP1 SUB PUSH1 0x20 ADD SWAP1 LOG1 JUMPDEST PUSH1 0x35 SLOAD PUSH1 0x40 DUP1 MLOAD PUSH1 0x1 PUSH1 0x1 PUSH1 0xA0 SHL SUB SWAP3 DUP4 AND DUP2 MSTORE SWAP2 DUP5 AND PUSH1 0x20 DUP4 ADD MSTORE DUP1 MLOAD PUSH32 0x850B3DF64837D7D518B45F5AA64D104652C3B80EB5B34A8E3D9EB666CB7CDEA5 SWAP3 DUP2 SWAP1 SUB SWAP1 SWAP2 ADD SWAP1 LOG1 POP PUSH1 0x35 DUP1 SLOAD PUSH1 0x1 PUSH1 0x1 PUSH1 0xA0 SHL SUB NOT AND PUSH1 0x1 PUSH1 0x1 PUSH1 0xA0 SHL SUB SWAP3 SWAP1 SWAP3 AND SWAP2 SWAP1 SWAP2 OR SWAP1 SSTORE JUMP JUMPDEST PUSH1 0x3B SLOAD SWAP1 JUMP JUMPDEST PUSH1 0x38 SLOAD SWAP1 JUMP JUMPDEST PUSH1 0x34 SLOAD SWAP1 JUMP JUMPDEST PUSH2 0x711 CALLER PUSH2 0x887 JUMP JUMPDEST PUSH2 0x762 JUMPI PUSH1 0x40 DUP1 MLOAD PUSH3 0x461BCD PUSH1 0xE5 SHL DUP2 MSTORE PUSH1 0x20 PUSH1 0x4 DUP3 ADD MSTORE PUSH1 0x1A PUSH1 0x24 DUP3 ADD MSTORE PUSH32 0x73656E646572206973206E6F74206120636F6E74726F6C6C6572000000000000 PUSH1 0x44 DUP3 ADD MSTORE SWAP1 MLOAD SWAP1 DUP2 SWAP1 SUB PUSH1 0x64 ADD SWAP1 REVERT JUMPDEST PUSH2 0x2E3 PUSH1 0x38 DUP3 PUSH4 0xFFFFFFFF PUSH2 0x91B AND JUMP JUMPDEST PUSH1 0x2 DUP2 ADD SLOAD PUSH1 0x0 SWAP1 PUSH2 0x78E SWAP1 PUSH3 0x15180 PUSH4 0xFFFFFFFF PUSH2 0x96F AND JUMP JUMPDEST TIMESTAMP GT ISZERO PUSH2 0x79D JUMPI POP DUP1 SLOAD PUSH2 0x7A4 JUMP JUMPDEST POP PUSH1 0x1 DUP2 ADD SLOAD JUMPDEST SWAP2 SWAP1 POP JUMP JUMPDEST PUSH1 0x35 SLOAD PUSH1 0x1 PUSH1 0x1 PUSH1 0xA0 SHL SUB SWAP1 DUP2 AND SWAP2 AND EQ SWAP1 JUMP JUMPDEST PUSH1 0x4 DUP3 ADD SLOAD PUSH1 0xFF AND ISZERO PUSH2 0x80B JUMPI PUSH1 0x40 DUP1 MLOAD PUSH3 0x461BCD PUSH1 0xE5 SHL DUP2 MSTORE PUSH1 0x20 PUSH1 0x4 DUP3 ADD MSTORE PUSH1 0x11 PUSH1 0x24 DUP3 ADD MSTORE PUSH17 0x1B1A5B5A5D08185B1C9958591E481CD95D PUSH1 0x7A SHL PUSH1 0x44 DUP3 ADD MSTORE SWAP1 MLOAD SWAP1 DUP2 SWAP1 SUB PUSH1 0x64 ADD SWAP1 REVERT JUMPDEST PUSH2 0x815 DUP3 DUP3 PUSH2 0x9D0 JUMP JUMPDEST POP PUSH1 0x4 ADD DUP1 SLOAD PUSH1 0xFF NOT AND PUSH1 0x1 OR SWAP1 SSTORE JUMP JUMPDEST PUSH1 0x4 DUP3 ADD SLOAD PUSH1 0xFF AND PUSH2 0x87F JUMPI PUSH1 0x40 DUP1 MLOAD PUSH3 0x461BCD PUSH1 0xE5 SHL DUP2 MSTORE PUSH1 0x20 PUSH1 0x4 DUP3 ADD MSTORE PUSH1 0x19 PUSH1 0x24 DUP3 ADD MSTORE PUSH32 0x6C696D6974206861736E2774206265656E207365742079657400000000000000 PUSH1 0x44 DUP3 ADD MSTORE SWAP1 MLOAD SWAP1 DUP2 SWAP1 SUB PUSH1 0x64 ADD SWAP1 REVERT JUMPDEST PUSH1 0x3 SWAP1 SWAP2 ADD SSTORE JUMP JUMPDEST PUSH1 0x0 PUSH2 0x894 PUSH1 0x34 SLOAD PUSH2 0x9F3 JUMP JUMPDEST PUSH1 0x1 PUSH1 0x1 PUSH1 0xA0 SHL SUB AND PUSH4 0xB429AFEB DUP4 PUSH1 0x40 MLOAD DUP3 PUSH4 0xFFFFFFFF AND PUSH1 0xE0 SHL DUP2 MSTORE PUSH1 0x4 ADD DUP1 DUP3 PUSH1 0x1 PUSH1 0x1 PUSH1 0xA0 SHL SUB AND PUSH1 0x1 PUSH1 0x1 PUSH1 0xA0 SHL SUB AND DUP2 MSTORE PUSH1 0x20 ADD SWAP2 POP POP PUSH1 0x20 PUSH1 0x40 MLOAD DUP1 DUP4 SUB DUP2 DUP7 DUP1 EXTCODESIZE ISZERO DUP1 ISZERO PUSH2 0x8E9 JUMPI PUSH1 0x0 DUP1 REVERT JUMPDEST POP GAS STATICCALL ISZERO DUP1 ISZERO PUSH2 0x8FD JUMPI RETURNDATASIZE PUSH1 0x0 DUP1 RETURNDATACOPY RETURNDATASIZE PUSH1 0x0 REVERT JUMPDEST POP POP POP POP PUSH1 0x40 MLOAD RETURNDATASIZE PUSH1 0x20 DUP2 LT ISZERO PUSH2 0x913 JUMPI PUSH1 0x0 DUP1 REVERT JUMPDEST POP MLOAD SWAP3 SWAP2 POP POP JUMP JUMPDEST DUP1 DUP3 PUSH1 0x3 ADD SLOAD EQ PUSH2 0x95D JUMPI PUSH1 0x40 MLOAD PUSH3 0x461BCD PUSH1 0xE5 SHL DUP2 MSTORE PUSH1 0x4 ADD DUP1 DUP1 PUSH1 0x20 ADD DUP3 DUP2 SUB DUP3 MSTORE PUSH1 0x22 DUP2 MSTORE PUSH1 0x20 ADD DUP1 PUSH2 0xB6E PUSH1 0x22 SWAP2 CODECOPY PUSH1 0x40 ADD SWAP2 POP POP PUSH1 0x40 MLOAD DUP1 SWAP2 SUB SWAP1 REVERT JUMPDEST PUSH2 0x96B DUP3 DUP4 PUSH1 0x3 ADD SLOAD PUSH2 0x9D0 JUMP JUMPDEST POP POP JUMP JUMPDEST PUSH1 0x0 DUP3 DUP3 ADD DUP4 DUP2 LT ISZERO PUSH2 0x9C9 JUMPI PUSH1 0x40 DUP1 MLOAD PUSH3 0x461BCD PUSH1 0xE5 SHL DUP2 MSTORE PUSH1 0x20 PUSH1 0x4 DUP3 ADD MSTORE PUSH1 0x1B PUSH1 0x24 DUP3 ADD MSTORE PUSH32 0x536166654D6174683A206164646974696F6E206F766572666C6F770000000000 PUSH1 0x44 DUP3 ADD MSTORE SWAP1 MLOAD SWAP1 DUP2 SWAP1 SUB PUSH1 0x64 ADD SWAP1 REVERT JUMPDEST SWAP4 SWAP3 POP POP POP JUMP JUMPDEST PUSH2 0x9D9 DUP3 PUSH2 0xB14 JUMP JUMPDEST DUP1 DUP3 SSTORE PUSH1 0x1 DUP3 ADD SLOAD DUP2 LT ISZERO PUSH2 0x96B JUMPI DUP2 SLOAD PUSH1 0x1 DUP4 ADD SSTORE POP POP JUMP JUMPDEST PUSH1 0x33 SLOAD PUSH1 0x0 SWAP1 PUSH1 0x1 PUSH1 0x1 PUSH1 0xA0 SHL SUB AND PUSH2 0xA53 JUMPI PUSH1 0x40 DUP1 MLOAD PUSH3 0x461BCD PUSH1 0xE5 SHL DUP2 MSTORE PUSH1 0x20 PUSH1 0x4 DUP3 ADD MSTORE PUSH1 0x1D PUSH1 0x24 DUP3 ADD MSTORE PUSH32 0x454E535265736F6C7661626C65206E6F7420696E697469616C697A6564000000 PUSH1 0x44 DUP3 ADD MSTORE SWAP1 MLOAD SWAP1 DUP2 SWAP1 SUB PUSH1 0x64 ADD SWAP1 REVERT JUMPDEST PUSH1 0x33 SLOAD PUSH1 0x40 DUP1 MLOAD PUSH4 0x178B8BF PUSH1 0xE0 SHL DUP2 MSTORE PUSH1 0x4 DUP2 ADD DUP6 SWAP1 MSTORE SWAP1 MLOAD PUSH1 0x1 PUSH1 0x1 PUSH1 0xA0 SHL SUB SWAP1 SWAP3 AND SWAP2 PUSH4 0x178B8BF SWAP2 PUSH1 0x24 DUP1 DUP3 ADD SWAP3 PUSH1 0x20 SWAP3 SWAP1 SWAP2 SWAP1 DUP3 SWAP1 SUB ADD DUP2 DUP7 DUP1 EXTCODESIZE ISZERO DUP1 ISZERO PUSH2 0xA9F JUMPI PUSH1 0x0 DUP1 REVERT JUMPDEST POP GAS STATICCALL ISZERO DUP1 ISZERO PUSH2 0xAB3 JUMPI RETURNDATASIZE PUSH1 0x0 DUP1 RETURNDATACOPY RETURNDATASIZE PUSH1 0x0 REVERT JUMPDEST POP POP POP POP PUSH1 0x40 MLOAD RETURNDATASIZE PUSH1 0x20 DUP2 LT ISZERO PUSH2 0xAC9 JUMPI PUSH1 0x0 DUP1 REVERT JUMPDEST POP MLOAD PUSH1 0x40 DUP1 MLOAD PUSH4 0x1D9DABEF PUSH1 0xE1 SHL DUP2 MSTORE PUSH1 0x4 DUP2 ADD DUP6 SWAP1 MSTORE SWAP1 MLOAD PUSH1 0x1 PUSH1 0x1 PUSH1 0xA0 SHL SUB SWAP1 SWAP3 AND SWAP2 PUSH4 0x3B3B57DE SWAP2 PUSH1 0x24 DUP1 DUP3 ADD SWAP3 PUSH1 0x20 SWAP3 SWAP1 SWAP2 SWAP1 DUP3 SWAP1 SUB ADD DUP2 DUP7 DUP1 EXTCODESIZE ISZERO DUP1 ISZERO PUSH2 0x8E9 JUMPI PUSH1 0x0 DUP1 REVERT JUMPDEST PUSH1 0x2 DUP2 ADD SLOAD PUSH2 0xB2C SWAP1 PUSH3 0x15180 PUSH4 0xFFFFFFFF PUSH2 0x96F AND JUMP JUMPDEST TIMESTAMP GT ISZERO PUSH2 0xB6A JUMPI TIMESTAMP PUSH1 0x2 DUP3 ADD SSTORE DUP1 SLOAD PUSH1 0x1 DUP3 ADD SSTORE PUSH1 0x40 MLOAD PUSH32 0xE93BC25276D408D390778E7A8B926F2F67209C43ED540081B951FE128F0D3CD2 SWAP1 PUSH1 0x0 SWAP1 LOG1 JUMPDEST POP JUMP INVALID PUSH4 0x6F6E6669 PUSH19 0x6D65642F7375626D6974746564206C696D6974 KECCAK256 PUSH14 0x69736D617463686F776E65722063 PUSH2 0x6E6E PUSH16 0x742062652073657420746F207A65726F KECCAK256 PUSH2 0x6464 PUSH19 0x657373A265627A7A723158202FBEA0534AF1F3 CALL 0x5C PUSH15 0xFC1A4658DCB82F38911ED3887FF708 SWAP7 EXTCODEHASH SUB 0xF9 0xC8 0x2F RETURNDATASIZE PUSH5 0x736F6C6343 STOP SDIV GT STOP ORIGIN "
		},
		"gasEstimates": {
			"creation": {
				"codeDepositCost": "609400",
				"executionCost": "61493",
				"totalCost": "670893"
			},
			"external": {
				"confirmLoadLimitUpdate(uint256)": "infinite",
				"controllerNode()": "1064",
				"ensRegistry()": "1082",
				"isTransferable()": "1073",
				"loadLimitAvailable()": "infinite",
				"loadLimitControllerConfirmationRequired()": "1033",
				"loadLimitPending()": "1020",
				"loadLimitValue()": "1042",
				"owner()": "1126",
				"renounceOwnership()": "24056",
				"setLoadLimit(uint256)": "infinite",
				"submitLoadLimitUpdate(uint256)": "infinite",
				"tokenWhitelistNode()": "1065",
				"transferOwnership(address,bool)": "infinite"
			},
			"internal": {
				"_initializeLoadLimit(bytes32)": "infinite"
			}
		},
		"methodIdentifiers": {
			"confirmLoadLimitUpdate(uint256)": "f40b51f8",
			"controllerNode()": "e2b4ce97",
			"ensRegistry()": "7d73b231",
			"isTransferable()": "2121dc75",
			"loadLimitAvailable()": "1efd0299",
			"loadLimitControllerConfirmationRequired()": "ab205993",
			"loadLimitPending()": "c4856cd9",
			"loadLimitValue()": "da84b1ed",
			"owner()": "8da5cb5b",
			"renounceOwnership()": "715018a6",
			"setLoadLimit(uint256)": "3bfec254",
			"submitLoadLimitUpdate(uint256)": "b221f316",
			"tokenWhitelistNode()": "877337b0",
			"transferOwnership(address,bool)": "b242e534"
		}
	},
	"abi": [
		{
			"anonymous": false,
			"inputs": [
				{
					"indexed": false,
					"internalType": "address",
					"name": "_ensRegistry",
					"type": "address"
				}
			],
			"name": "ENSSetRegistry",
			"type": "event"
		},
		{
			"anonymous": false,
			"inputs": [
				{
					"indexed": false,
					"internalType": "address",
					"name": "_locked",
					"type": "address"
				}
			],
			"name": "LockedOwnership",
			"type": "event"
		},
		{
			"anonymous": false,
			"inputs": [
				{
					"indexed": false,
					"internalType": "address",
					"name": "_sender",
					"type": "address"
				},
				{
					"indexed": false,
					"internalType": "uint256",
					"name": "_amount",
					"type": "uint256"
				}
			],
			"name": "SetLoadLimit",
			"type": "event"
		},
		{
			"anonymous": false,
			"inputs": [
				{
					"indexed": false,
					"internalType": "uint256",
					"name": "_amount",
					"type": "uint256"
				}
			],
			"name": "SubmittedLoadLimitUpdate",
			"type": "event"
		},
		{
			"anonymous": false,
			"inputs": [
				{
					"indexed": false,
					"internalType": "address",
					"name": "_from",
					"type": "address"
				},
				{
					"indexed": false,
					"internalType": "address",
					"name": "_to",
					"type": "address"
				}
			],
			"name": "TransferredOwnership",
			"type": "event"
		},
		{
			"constant": false,
			"inputs": [
				{
					"internalType": "uint256",
					"name": "_amount",
					"type": "uint256"
				}
			],
			"name": "confirmLoadLimitUpdate",
			"outputs": [],
			"payable": false,
			"stateMutability": "nonpayable",
			"type": "function"
		},
		{
			"constant": true,
			"inputs": [],
			"name": "controllerNode",
			"outputs": [
				{
					"internalType": "bytes32",
					"name": "",
					"type": "bytes32"
				}
			],
			"payable": false,
			"stateMutability": "view",
			"type": "function"
		},
		{
			"constant": true,
			"inputs": [],
			"name": "ensRegistry",
			"outputs": [
				{
					"internalType": "address",
					"name": "",
					"type": "address"
				}
			],
			"payable": false,
			"stateMutability": "view",
			"type": "function"
		},
		{
			"constant": true,
			"inputs": [],
			"name": "isTransferable",
			"outputs": [
				{
					"internalType": "bool",
					"name": "",
					"type": "bool"
				}
			],
			"payable": false,
			"stateMutability": "view",
			"type": "function"
		},
		{
			"constant": true,
			"inputs": [],
			"name": "loadLimitAvailable",
			"outputs": [
				{
					"internalType": "uint256",
					"name": "",
					"type": "uint256"
				}
			],
			"payable": false,
			"stateMutability": "view",
			"type": "function"
		},
		{
			"constant": true,
			"inputs": [],
			"name": "loadLimitControllerConfirmationRequired",
			"outputs": [
				{
					"internalType": "bool",
					"name": "",
					"type": "bool"
				}
			],
			"payable": false,
			"stateMutability": "view",
			"type": "function"
		},
		{
			"constant": true,
			"inputs": [],
			"name": "loadLimitPending",
			"outputs": [
				{
					"internalType": "uint256",
					"name": "",
					"type": "uint256"
				}
			],
			"payable": false,
			"stateMutability": "view",
			"type": "function"
		},
		{
			"constant": true,
			"inputs": [],
			"name": "loadLimitValue",
			"outputs": [
				{
					"internalType": "uint256",
					"name": "",
					"type": "uint256"
				}
			],
			"payable": false,
			"stateMutability": "view",
			"type": "function"
		},
		{
			"constant": true,
			"inputs": [],
			"name": "owner",
			"outputs": [
				{
					"internalType": "address payable",
					"name": "",
					"type": "address"
				}
			],
			"payable": false,
			"stateMutability": "view",
			"type": "function"
		},
		{
			"constant": false,
			"inputs": [],
			"name": "renounceOwnership",
			"outputs": [],
			"payable": false,
			"stateMutability": "nonpayable",
			"type": "function"
		},
		{
			"constant": false,
			"inputs": [
				{
					"internalType": "uint256",
					"name": "_amount",
					"type": "uint256"
				}
			],
			"name": "setLoadLimit",
			"outputs": [],
			"payable": false,
			"stateMutability": "nonpayable",
			"type": "function"
		},
		{
			"constant": false,
			"inputs": [
				{
					"internalType": "uint256",
					"name": "_amount",
					"type": "uint256"
				}
			],
			"name": "submitLoadLimitUpdate",
			"outputs": [],
			"payable": false,
			"stateMutability": "nonpayable",
			"type": "function"
		},
		{
			"constant": true,
			"inputs": [],
			"name": "tokenWhitelistNode",
			"outputs": [
				{
					"internalType": "bytes32",
					"name": "",
					"type": "bytes32"
				}
			],
			"payable": false,
			"stateMutability": "view",
			"type": "function"
		},
		{
			"constant": false,
			"inputs": [
				{
					"internalType": "address payable",
					"name": "_account",
					"type": "address"
				},
				{
					"internalType": "bool",
					"name": "_transferable",
					"type": "bool"
				}
			],
			"name": "transferOwnership",
			"outputs": [],
			"payable": false,
			"stateMutability": "nonpayable",
			"type": "function"
		}
	]
}