{
	"data": {
		"bytecode": {
			"linkReferences": {},
			"object": "6080604052603380546001600160a01b0319166e0c2e074ec69a0dfb2997ba6c7d2e1e1790557f7f2ce995617d2816b426c5c8698c5ec2952f7a34bb10f38326f74933d589369760345534801561005557600080fd5b50610b1c806100656000396000f3fe608060405234801561001057600080fd5b50600436106100cf5760003560e01c80637d73b2311161008c578063b242e53411610066578063b242e5341461018a578063bcb8b74a146101b8578063e2b4ce97146101c0578063eadd3cea146101c8576100cf565b80637d73b231146101565780638da5cb5b1461017a5780639b0dfd2714610182576100cf565b8063027ef3eb146100d45780632121dc75146100ee57806321ce918d1461010a5780633c672eb7146101295780635d2362a814610146578063715018a61461014e575b600080fd5b6100dc6101e5565b60408051918252519081900360200190f35b6100f66101eb565b604080519115158252519081900360200190f35b6101276004803603602081101561012057600080fd5b50356101fb565b005b6101276004803603602081101561013f57600080fd5b5035610299565b6100dc61033f565b610127610350565b61015e61044e565b604080516001600160a01b039092168252519081900360200190f35b61015e61045d565b6100dc61046c565b610127600480360360408110156101a057600080fd5b506001600160a01b0381351690602001351515610472565b6100f661062c565b6100dc610635565b610127600480360360208110156101de57600080fd5b503561063b565b60395490565b603554600160a01b900460ff1690565b610204336106a6565b8061020e57503330145b610252576040805162461bcd60e51b815260206004820152601060248201526f37b7363c9037bbb732b93e3e39b2b63360811b604482015290519081900360640190fd5b61026360368263ffffffff6106bd16565b6040805182815290517f4b1b970c8a0fa761e7803ed70c13d7aca71904b13df60fbe03f981da1730da919181900360200190a150565b6102a2336106a6565b806102ac57503330145b6102f0576040805162461bcd60e51b815260206004820152601060248201526f37b7363c9037bbb732b93e3e39b2b63360811b604482015290519081900360640190fd5b61030160368263ffffffff61071e16565b604080513381526020810183905281517f068f112e5ec923d412be64779fe69e0fcbb6784c6617e94cccc8fd348f2e0f21929181900390910190a150565b600061034b6036610787565b905090565b610359336106a6565b6103a3576040805162461bcd60e51b815260206004820152601660248201527539b2b73232b91034b9903737ba1030b71037bbb732b960511b604482015290519081900360640190fd5b603554600160a01b900460ff16610401576040805162461bcd60e51b815260206004820152601d60248201527f6f776e657273686970206973206e6f74207472616e7366657261626c65000000604482015290519081900360640190fd5b603580546001600160a01b0319169055604080516000808252602082015281517f850b3df64837d7d518b45f5aa64d104652c3b80eb5b34a8e3d9eb666cb7cdea5929181900390910190a1565b6033546001600160a01b031690565b6035546001600160a01b031690565b60365490565b61047b336106a6565b6104c5576040805162461bcd60e51b815260206004820152601660248201527539b2b73232b91034b9903737ba1030b71037bbb732b960511b604482015290519081900360640190fd5b603554600160a01b900460ff16610523576040805162461bcd60e51b815260206004820152601d60248201527f6f776e657273686970206973206e6f74207472616e7366657261626c65000000604482015290519081900360640190fd5b6001600160a01b0382166105685760405162461bcd60e51b8152600401808060200182810382526023815260200180610ac56023913960400191505060405180910390fd5b6035805460ff60a01b1916600160a01b83151502179055806105c157604080516001600160a01b038416815290517f808639ff9c8e4732d60b6c2330de498035416d229f27a77d259680895efec1229181900360200190a15b603554604080516001600160a01b039283168152918416602083015280517f850b3df64837d7d518b45f5aa64d104652c3b80eb5b34a8e3d9eb666cb7cdea59281900390910190a150603580546001600160a01b0319166001600160a01b0392909216919091179055565b603a5460ff1690565b60345490565b610644336107bc565b610695576040805162461bcd60e51b815260206004820152601a60248201527f73656e646572206973206e6f74206120636f6e74726f6c6c6572000000000000604482015290519081900360640190fd5b61030160368263ffffffff61085016565b6035546001600160a01b038281169116145b919050565b600482015460ff16610716576040805162461bcd60e51b815260206004820152601960248201527f6c696d6974206861736e2774206265656e207365742079657400000000000000604482015290519081900360640190fd5b600390910155565b600482015460ff161561076c576040805162461bcd60e51b81526020600482015260116024820152701b1a5b5a5d08185b1c9958591e481cd95d607a1b604482015290519081900360640190fd5b61077682826108a4565b50600401805460ff19166001179055565b60028101546000906107a2906201518063ffffffff6108c716565b4211156107b1575080546106b8565b5060018101546106b8565b60006107c9603454610928565b6001600160a01b031663b429afeb836040518263ffffffff1660e01b815260040180826001600160a01b03166001600160a01b0316815260200191505060206040518083038186803b15801561081e57600080fd5b505afa158015610832573d6000803e3d6000fd5b505050506040513d602081101561084857600080fd5b505192915050565b808260030154146108925760405162461bcd60e51b8152600401808060200182810382526022815260200180610aa36022913960400191505060405180910390fd5b6108a08283600301546108a4565b5050565b6108ad82610a49565b80825560018201548110156108a057815460018301555050565b600082820183811015610921576040805162461bcd60e51b815260206004820152601b60248201527f536166654d6174683a206164646974696f6e206f766572666c6f770000000000604482015290519081900360640190fd5b9392505050565b6033546000906001600160a01b0316610988576040805162461bcd60e51b815260206004820152601d60248201527f454e535265736f6c7661626c65206e6f7420696e697469616c697a6564000000604482015290519081900360640190fd5b60335460408051630178b8bf60e01b81526004810185905290516001600160a01b0390921691630178b8bf91602480820192602092909190829003018186803b1580156109d457600080fd5b505afa1580156109e8573d6000803e3d6000fd5b505050506040513d60208110156109fe57600080fd5b505160408051631d9dabef60e11b81526004810185905290516001600160a01b0390921691633b3b57de91602480820192602092909190829003018186803b15801561081e57600080fd5b6002810154610a61906201518063ffffffff6108c716565b421115610a9f57426002820155805460018201556040517fe93bc25276d408d390778e7a8b926f2f67209c43ed540081b951fe128f0d3cd290600090a15b5056fe636f6e6669726d65642f7375626d6974746564206c696d6974206d69736d617463686f776e65722063616e6e6f742062652073657420746f207a65726f2061646472657373a265627a7a7231582029f0b0eca1ccb82008b2fc6ef732a75b7fa928a2754a4f390b46c0c48063075f64736f6c63430005110032",
			"opcodes": "PUSH1 0x80 PUSH1 0x40 MSTORE PUSH1 0x33 DUP1 SLOAD PUSH1 0x1 PUSH1 0x1 PUSH1 0xA0 SHL SUB NOT AND PUSH15 0xC2E074EC69A0DFB2997BA6C7D2E1E OR SWAP1 SSTORE PUSH32 0x7F2CE995617D2816B426C5C8698C5EC2952F7A34BB10F38326F74933D5893697 PUSH1 0x34 SSTORE CALLVALUE DUP1 ISZERO PUSH2 0x55 JUMPI PUSH1 0x0 DUP1 REVERT JUMPDEST POP PUSH2 0xB1C DUP1 PUSH2 0x65 PUSH1 0x0 CODECOPY PUSH1 0x0 RETURN INVALID PUSH1 0x80 PUSH1 0x40 MSTORE CALLVALUE DUP1 ISZERO PUSH2 0x10 JUMPI PUSH1 0x0 DUP1 REVERT JUMPDEST POP PUSH1 0x4 CALLDATASIZE LT PUSH2 0xCF JUMPI PUSH1 0x0 CALLDATALOAD PUSH1 0xE0 SHR DUP1 PUSH4 0x7D73B231 GT PUSH2 0x8C JUMPI DUP1 PUSH4 0xB242E534 GT PUSH2 0x66 JUMPI DUP1 PUSH4 0xB242E534 EQ PUSH2 0x18A JUMPI DUP1 PUSH4 0xBCB8B74A EQ PUSH2 0x1B8 JUMPI DUP1 PUSH4 0xE2B4CE97 EQ PUSH2 0x1C0 JUMPI DUP1 PUSH4 0xEADD3CEA EQ PUSH2 0x1C8 JUMPI PUSH2 0xCF JUMP JUMPDEST DUP1 PUSH4 0x7D73B231 EQ PUSH2 0x156 JUMPI DUP1 PUSH4 0x8DA5CB5B EQ PUSH2 0x17A JUMPI DUP1 PUSH4 0x9B0DFD27 EQ PUSH2 0x182 JUMPI PUSH2 0xCF JUMP JUMPDEST DUP1 PUSH4 0x27EF3EB EQ PUSH2 0xD4 JUMPI DUP1 PUSH4 0x2121DC75 EQ PUSH2 0xEE JUMPI DUP1 PUSH4 0x21CE918D EQ PUSH2 0x10A JUMPI DUP1 PUSH4 0x3C672EB7 EQ PUSH2 0x129 JUMPI DUP1 PUSH4 0x5D2362A8 EQ PUSH2 0x146 JUMPI DUP1 PUSH4 0x715018A6 EQ PUSH2 0x14E JUMPI JUMPDEST PUSH1 0x0 DUP1 REVERT JUMPDEST PUSH2 0xDC PUSH2 0x1E5 JUMP JUMPDEST PUSH1 0x40 DUP1 MLOAD SWAP2 DUP3 MSTORE MLOAD SWAP1 DUP2 SWAP1 SUB PUSH1 0x20 ADD SWAP1 RETURN JUMPDEST PUSH2 0xF6 PUSH2 0x1EB JUMP JUMPDEST PUSH1 0x40 DUP1 MLOAD SWAP2 ISZERO ISZERO DUP3 MSTORE MLOAD SWAP1 DUP2 SWAP1 SUB PUSH1 0x20 ADD SWAP1 RETURN JUMPDEST PUSH2 0x127 PUSH1 0x4 DUP1 CALLDATASIZE SUB PUSH1 0x20 DUP2 LT ISZERO PUSH2 0x120 JUMPI PUSH1 0x0 DUP1 REVERT JUMPDEST POP CALLDATALOAD PUSH2 0x1FB JUMP JUMPDEST STOP JUMPDEST PUSH2 0x127 PUSH1 0x4 DUP1 CALLDATASIZE SUB PUSH1 0x20 DUP2 LT ISZERO PUSH2 0x13F JUMPI PUSH1 0x0 DUP1 REVERT JUMPDEST POP CALLDATALOAD PUSH2 0x299 JUMP JUMPDEST PUSH2 0xDC PUSH2 0x33F JUMP JUMPDEST PUSH2 0x127 PUSH2 0x350 JUMP JUMPDEST PUSH2 0x15E PUSH2 0x44E JUMP JUMPDEST PUSH1 0x40 DUP1 MLOAD PUSH1 0x1 PUSH1 0x1 PUSH1 0xA0 SHL SUB SWAP1 SWAP3 AND DUP3 MSTORE MLOAD SWAP1 DUP2 SWAP1 SUB PUSH1 0x20 ADD SWAP1 RETURN JUMPDEST PUSH2 0x15E PUSH2 0x45D JUMP JUMPDEST PUSH2 0xDC PUSH2 0x46C JUMP JUMPDEST PUSH2 0x127 PUSH1 0x4 DUP1 CALLDATASIZE SUB PUSH1 0x40 DUP2 LT ISZERO PUSH2 0x1A0 JUMPI PUSH1 0x0 DUP1 REVERT JUMPDEST POP PUSH1 0x1 PUSH1 0x1 PUSH1 0xA0 SHL SUB DUP2 CALLDATALOAD AND SWAP1 PUSH1 0x20 ADD CALLDATALOAD ISZERO ISZERO PUSH2 0x472 JUMP JUMPDEST PUSH2 0xF6 PUSH2 0x62C JUMP JUMPDEST PUSH2 0xDC PUSH2 0x635 JUMP JUMPDEST PUSH2 0x127 PUSH1 0x4 DUP1 CALLDATASIZE SUB PUSH1 0x20 DUP2 LT ISZERO PUSH2 0x1DE JUMPI PUSH1 0x0 DUP1 REVERT JUMPDEST POP CALLDATALOAD PUSH2 0x63B JUMP JUMPDEST PUSH1 0x39 SLOAD SWAP1 JUMP JUMPDEST PUSH1 0x35 SLOAD PUSH1 0x1 PUSH1 0xA0 SHL SWAP1 DIV PUSH1 0xFF AND SWAP1 JUMP JUMPDEST PUSH2 0x204 CALLER PUSH2 0x6A6 JUMP JUMPDEST DUP1 PUSH2 0x20E JUMPI POP CALLER ADDRESS EQ JUMPDEST PUSH2 0x252 JUMPI PUSH1 0x40 DUP1 MLOAD PUSH3 0x461BCD PUSH1 0xE5 SHL DUP2 MSTORE PUSH1 0x20 PUSH1 0x4 DUP3 ADD MSTORE PUSH1 0x10 PUSH1 0x24 DUP3 ADD MSTORE PUSH16 0x37B7363C9037BBB732B93E3E39B2B633 PUSH1 0x81 SHL PUSH1 0x44 DUP3 ADD MSTORE SWAP1 MLOAD SWAP1 DUP2 SWAP1 SUB PUSH1 0x64 ADD SWAP1 REVERT JUMPDEST PUSH2 0x263 PUSH1 0x36 DUP3 PUSH4 0xFFFFFFFF PUSH2 0x6BD AND JUMP JUMPDEST PUSH1 0x40 DUP1 MLOAD DUP3 DUP2 MSTORE SWAP1 MLOAD PUSH32 0x4B1B970C8A0FA761E7803ED70C13D7ACA71904B13DF60FBE03F981DA1730DA91 SWAP2 DUP2 SWAP1 SUB PUSH1 0x20 ADD SWAP1 LOG1 POP JUMP JUMPDEST PUSH2 0x2A2 CALLER PUSH2 0x6A6 JUMP JUMPDEST DUP1 PUSH2 0x2AC JUMPI POP CALLER ADDRESS EQ JUMPDEST PUSH2 0x2F0 JUMPI PUSH1 0x40 DUP1 MLOAD PUSH3 0x461BCD PUSH1 0xE5 SHL DUP2 MSTORE PUSH1 0x20 PUSH1 0x4 DUP3 ADD MSTORE PUSH1 0x10 PUSH1 0x24 DUP3 ADD MSTORE PUSH16 0x37B7363C9037BBB732B93E3E39B2B633 PUSH1 0x81 SHL PUSH1 0x44 DUP3 ADD MSTORE SWAP1 MLOAD SWAP1 DUP2 SWAP1 SUB PUSH1 0x64 ADD SWAP1 REVERT JUMPDEST PUSH2 0x301 PUSH1 0x36 DUP3 PUSH4 0xFFFFFFFF PUSH2 0x71E AND JUMP JUMPDEST PUSH1 0x40 DUP1 MLOAD CALLER DUP2 MSTORE PUSH1 0x20 DUP2 ADD DUP4 SWAP1 MSTORE DUP2 MLOAD PUSH32 0x68F112E5EC923D412BE64779FE69E0FCBB6784C6617E94CCCC8FD348F2E0F21 SWAP3 SWAP2 DUP2 SWAP1 SUB SWAP1 SWAP2 ADD SWAP1 LOG1 POP JUMP JUMPDEST PUSH1 0x0 PUSH2 0x34B PUSH1 0x36 PUSH2 0x787 JUMP JUMPDEST SWAP1 POP SWAP1 JUMP JUMPDEST PUSH2 0x359 CALLER PUSH2 0x6A6 JUMP JUMPDEST PUSH2 0x3A3 JUMPI PUSH1 0x40 DUP1 MLOAD PUSH3 0x461BCD PUSH1 0xE5 SHL DUP2 MSTORE PUSH1 0x20 PUSH1 0x4 DUP3 ADD MSTORE PUSH1 0x16 PUSH1 0x24 DUP3 ADD MSTORE PUSH22 0x39B2B73232B91034B9903737BA1030B71037BBB732B9 PUSH1 0x51 SHL PUSH1 0x44 DUP3 ADD MSTORE SWAP1 MLOAD SWAP1 DUP2 SWAP1 SUB PUSH1 0x64 ADD SWAP1 REVERT JUMPDEST PUSH1 0x35 SLOAD PUSH1 0x1 PUSH1 0xA0 SHL SWAP1 DIV PUSH1 0xFF AND PUSH2 0x401 JUMPI PUSH1 0x40 DUP1 MLOAD PUSH3 0x461BCD PUSH1 0xE5 SHL DUP2 MSTORE PUSH1 0x20 PUSH1 0x4 DUP3 ADD MSTORE PUSH1 0x1D PUSH1 0x24 DUP3 ADD MSTORE PUSH32 0x6F776E657273686970206973206E6F74207472616E7366657261626C65000000 PUSH1 0x44 DUP3 ADD MSTORE SWAP1 MLOAD SWAP1 DUP2 SWAP1 SUB PUSH1 0x64 ADD SWAP1 REVERT JUMPDEST PUSH1 0x35 DUP1 SLOAD PUSH1 0x1 PUSH1 0x1 PUSH1 0xA0 SHL SUB NOT AND SWAP1 SSTORE PUSH1 0x40 DUP1 MLOAD PUSH1 0x0 DUP1 DUP3 MSTORE PUSH1 0x20 DUP3 ADD MSTORE DUP2 MLOAD PUSH32 0x850B3DF64837D7D518B45F5AA64D104652C3B80EB5B34A8E3D9EB666CB7CDEA5 SWAP3 SWAP2 DUP2 SWAP1 SUB SWAP1 SWAP2 ADD SWAP1 LOG1 JUMP JUMPDEST PUSH1 0x33 SLOAD PUSH1 0x1 PUSH1 0x1 PUSH1 0xA0 SHL SUB AND SWAP1 JUMP JUMPDEST PUSH1 0x35 SLOAD PUSH1 0x1 PUSH1 0x1 PUSH1 0xA0 SHL SUB AND SWAP1 JUMP JUMPDEST PUSH1 0x36 SLOAD SWAP1 JUMP JUMPDEST PUSH2 0x47B CALLER PUSH2 0x6A6 JUMP JUMPDEST PUSH2 0x4C5 JUMPI PUSH1 0x40 DUP1 MLOAD PUSH3 0x461BCD PUSH1 0xE5 SHL DUP2 MSTORE PUSH1 0x20 PUSH1 0x4 DUP3 ADD MSTORE PUSH1 0x16 PUSH1 0x24 DUP3 ADD MSTORE PUSH22 0x39B2B73232B91034B9903737BA1030B71037BBB732B9 PUSH1 0x51 SHL PUSH1 0x44 DUP3 ADD MSTORE SWAP1 MLOAD SWAP1 DUP2 SWAP1 SUB PUSH1 0x64 ADD SWAP1 REVERT JUMPDEST PUSH1 0x35 SLOAD PUSH1 0x1 PUSH1 0xA0 SHL SWAP1 DIV PUSH1 0xFF AND PUSH2 0x523 JUMPI PUSH1 0x40 DUP1 MLOAD PUSH3 0x461BCD PUSH1 0xE5 SHL DUP2 MSTORE PUSH1 0x20 PUSH1 0x4 DUP3 ADD MSTORE PUSH1 0x1D PUSH1 0x24 DUP3 ADD MSTORE PUSH32 0x6F776E657273686970206973206E6F74207472616E7366657261626C65000000 PUSH1 0x44 DUP3 ADD MSTORE SWAP1 MLOAD SWAP1 DUP2 SWAP1 SUB PUSH1 0x64 ADD SWAP1 REVERT JUMPDEST PUSH1 0x1 PUSH1 0x1 PUSH1 0xA0 SHL SUB DUP3 AND PUSH2 0x568 JUMPI PUSH1 0x40 MLOAD PUSH3 0x461BCD PUSH1 0xE5 SHL DUP2 MSTORE PUSH1 0x4 ADD DUP1 DUP1 PUSH1 0x20 ADD DUP3 DUP2 SUB DUP3 MSTORE PUSH1 0x23 DUP2 MSTORE PUSH1 0x20 ADD DUP1 PUSH2 0xAC5 PUSH1 0x23 SWAP2 CODECOPY PUSH1 0x40 ADD SWAP2 POP POP PUSH1 0x40 MLOAD DUP1 SWAP2 SUB SWAP1 REVERT JUMPDEST PUSH1 0x35 DUP1 SLOAD PUSH1 0xFF PUSH1 0xA0 SHL NOT AND PUSH1 0x1 PUSH1 0xA0 SHL DUP4 ISZERO ISZERO MUL OR SWAP1 SSTORE DUP1 PUSH2 0x5C1 JUMPI PUSH1 0x40 DUP1 MLOAD PUSH1 0x1 PUSH1 0x1 PUSH1 0xA0 SHL SUB DUP5 AND DUP2 MSTORE SWAP1 MLOAD PUSH32 0x808639FF9C8E4732D60B6C2330DE498035416D229F27A77D259680895EFEC122 SWAP2 DUP2 SWAP1 SUB PUSH1 0x20 ADD SWAP1 LOG1 JUMPDEST PUSH1 0x35 SLOAD PUSH1 0x40 DUP1 MLOAD PUSH1 0x1 PUSH1 0x1 PUSH1 0xA0 SHL SUB SWAP3 DUP4 AND DUP2 MSTORE SWAP2 DUP5 AND PUSH1 0x20 DUP4 ADD MSTORE DUP1 MLOAD PUSH32 0x850B3DF64837D7D518B45F5AA64D104652C3B80EB5B34A8E3D9EB666CB7CDEA5 SWAP3 DUP2 SWAP1 SUB SWAP1 SWAP2 ADD SWAP1 LOG1 POP PUSH1 0x35 DUP1 SLOAD PUSH1 0x1 PUSH1 0x1 PUSH1 0xA0 SHL SUB NOT AND PUSH1 0x1 PUSH1 0x1 PUSH1 0xA0 SHL SUB SWAP3 SWAP1 SWAP3 AND SWAP2 SWAP1 SWAP2 OR SWAP1 SSTORE JUMP JUMPDEST PUSH1 0x3A SLOAD PUSH1 0xFF AND SWAP1 JUMP JUMPDEST PUSH1 0x34 SLOAD SWAP1 JUMP JUMPDEST PUSH2 0x644 CALLER PUSH2 0x7BC JUMP JUMPDEST PUSH2 0x695 JUMPI PUSH1 0x40 DUP1 MLOAD PUSH3 0x461BCD PUSH1 0xE5 SHL DUP2 MSTORE PUSH1 0x20 PUSH1 0x4 DUP3 ADD MSTORE PUSH1 0x1A PUSH1 0x24 DUP3 ADD MSTORE PUSH32 0x73656E646572206973206E6F74206120636F6E74726F6C6C6572000000000000 PUSH1 0x44 DUP3 ADD MSTORE SWAP1 MLOAD SWAP1 DUP2 SWAP1 SUB PUSH1 0x64 ADD SWAP1 REVERT JUMPDEST PUSH2 0x301 PUSH1 0x36 DUP3 PUSH4 0xFFFFFFFF PUSH2 0x850 AND JUMP JUMPDEST PUSH1 0x35 SLOAD PUSH1 0x1 PUSH1 0x1 PUSH1 0xA0 SHL SUB DUP3 DUP2 AND SWAP2 AND EQ JUMPDEST SWAP2 SWAP1 POP JUMP JUMPDEST PUSH1 0x4 DUP3 ADD SLOAD PUSH1 0xFF AND PUSH2 0x716 JUMPI PUSH1 0x40 DUP1 MLOAD PUSH3 0x461BCD PUSH1 0xE5 SHL DUP2 MSTORE PUSH1 0x20 PUSH1 0x4 DUP3 ADD MSTORE PUSH1 0x19 PUSH1 0x24 DUP3 ADD MSTORE PUSH32 0x6C696D6974206861736E2774206265656E207365742079657400000000000000 PUSH1 0x44 DUP3 ADD MSTORE SWAP1 MLOAD SWAP1 DUP2 SWAP1 SUB PUSH1 0x64 ADD SWAP1 REVERT JUMPDEST PUSH1 0x3 SWAP1 SWAP2 ADD SSTORE JUMP JUMPDEST PUSH1 0x4 DUP3 ADD SLOAD PUSH1 0xFF AND ISZERO PUSH2 0x76C JUMPI PUSH1 0x40 DUP1 MLOAD PUSH3 0x461BCD PUSH1 0xE5 SHL DUP2 MSTORE PUSH1 0x20 PUSH1 0x4 DUP3 ADD MSTORE PUSH1 0x11 PUSH1 0x24 DUP3 ADD MSTORE PUSH17 0x1B1A5B5A5D08185B1C9958591E481CD95D PUSH1 0x7A SHL PUSH1 0x44 DUP3 ADD MSTORE SWAP1 MLOAD SWAP1 DUP2 SWAP1 SUB PUSH1 0x64 ADD SWAP1 REVERT JUMPDEST PUSH2 0x776 DUP3 DUP3 PUSH2 0x8A4 JUMP JUMPDEST POP PUSH1 0x4 ADD DUP1 SLOAD PUSH1 0xFF NOT AND PUSH1 0x1 OR SWAP1 SSTORE JUMP JUMPDEST PUSH1 0x2 DUP2 ADD SLOAD PUSH1 0x0 SWAP1 PUSH2 0x7A2 SWAP1 PUSH3 0x15180 PUSH4 0xFFFFFFFF PUSH2 0x8C7 AND JUMP JUMPDEST TIMESTAMP GT ISZERO PUSH2 0x7B1 JUMPI POP DUP1 SLOAD PUSH2 0x6B8 JUMP JUMPDEST POP PUSH1 0x1 DUP2 ADD SLOAD PUSH2 0x6B8 JUMP JUMPDEST PUSH1 0x0 PUSH2 0x7C9 PUSH1 0x34 SLOAD PUSH2 0x928 JUMP JUMPDEST PUSH1 0x1 PUSH1 0x1 PUSH1 0xA0 SHL SUB AND PUSH4 0xB429AFEB DUP4 PUSH1 0x40 MLOAD DUP3 PUSH4 0xFFFFFFFF AND PUSH1 0xE0 SHL DUP2 MSTORE PUSH1 0x4 ADD DUP1 DUP3 PUSH1 0x1 PUSH1 0x1 PUSH1 0xA0 SHL SUB AND PUSH1 0x1 PUSH1 0x1 PUSH1 0xA0 SHL SUB AND DUP2 MSTORE PUSH1 0x20 ADD SWAP2 POP POP PUSH1 0x20 PUSH1 0x40 MLOAD DUP1 DUP4 SUB DUP2 DUP7 DUP1 EXTCODESIZE ISZERO DUP1 ISZERO PUSH2 0x81E JUMPI PUSH1 0x0 DUP1 REVERT JUMPDEST POP GAS STATICCALL ISZERO DUP1 ISZERO PUSH2 0x832 JUMPI RETURNDATASIZE PUSH1 0x0 DUP1 RETURNDATACOPY RETURNDATASIZE PUSH1 0x0 REVERT JUMPDEST POP POP POP POP PUSH1 0x40 MLOAD RETURNDATASIZE PUSH1 0x20 DUP2 LT ISZERO PUSH2 0x848 JUMPI PUSH1 0x0 DUP1 REVERT JUMPDEST POP MLOAD SWAP3 SWAP2 POP POP JUMP JUMPDEST DUP1 DUP3 PUSH1 0x3 ADD SLOAD EQ PUSH2 0x892 JUMPI PUSH1 0x40 MLOAD PUSH3 0x461BCD PUSH1 0xE5 SHL DUP2 MSTORE PUSH1 0x4 ADD DUP1 DUP1 PUSH1 0x20 ADD DUP3 DUP2 SUB DUP3 MSTORE PUSH1 0x22 DUP2 MSTORE PUSH1 0x20 ADD DUP1 PUSH2 0xAA3 PUSH1 0x22 SWAP2 CODECOPY PUSH1 0x40 ADD SWAP2 POP POP PUSH1 0x40 MLOAD DUP1 SWAP2 SUB SWAP1 REVERT JUMPDEST PUSH2 0x8A0 DUP3 DUP4 PUSH1 0x3 ADD SLOAD PUSH2 0x8A4 JUMP JUMPDEST POP POP JUMP JUMPDEST PUSH2 0x8AD DUP3 PUSH2 0xA49 JUMP JUMPDEST DUP1 DUP3 SSTORE PUSH1 0x1 DUP3 ADD SLOAD DUP2 LT ISZERO PUSH2 0x8A0 JUMPI DUP2 SLOAD PUSH1 0x1 DUP4 ADD SSTORE POP POP JUMP JUMPDEST PUSH1 0x0 DUP3 DUP3 ADD DUP4 DUP2 LT ISZERO PUSH2 0x921 JUMPI PUSH1 0x40 DUP1 MLOAD PUSH3 0x461BCD PUSH1 0xE5 SHL DUP2 MSTORE PUSH1 0x20 PUSH1 0x4 DUP3 ADD MSTORE PUSH1 0x1B PUSH1 0x24 DUP3 ADD MSTORE PUSH32 0x536166654D6174683A206164646974696F6E206F766572666C6F770000000000 PUSH1 0x44 DUP3 ADD MSTORE SWAP1 MLOAD SWAP1 DUP2 SWAP1 SUB PUSH1 0x64 ADD SWAP1 REVERT JUMPDEST SWAP4 SWAP3 POP POP POP JUMP JUMPDEST PUSH1 0x33 SLOAD PUSH1 0x0 SWAP1 PUSH1 0x1 PUSH1 0x1 PUSH1 0xA0 SHL SUB AND PUSH2 0x988 JUMPI PUSH1 0x40 DUP1 MLOAD PUSH3 0x461BCD PUSH1 0xE5 SHL DUP2 MSTORE PUSH1 0x20 PUSH1 0x4 DUP3 ADD MSTORE PUSH1 0x1D PUSH1 0x24 DUP3 ADD MSTORE PUSH32 0x454E535265736F6C7661626C65206E6F7420696E697469616C697A6564000000 PUSH1 0x44 DUP3 ADD MSTORE SWAP1 MLOAD SWAP1 DUP2 SWAP1 SUB PUSH1 0x64 ADD SWAP1 REVERT JUMPDEST PUSH1 0x33 SLOAD PUSH1 0x40 DUP1 MLOAD PUSH4 0x178B8BF PUSH1 0xE0 SHL DUP2 MSTORE PUSH1 0x4 DUP2 ADD DUP6 SWAP1 MSTORE SWAP1 MLOAD PUSH1 0x1 PUSH1 0x1 PUSH1 0xA0 SHL SUB SWAP1 SWAP3 AND SWAP2 PUSH4 0x178B8BF SWAP2 PUSH1 0x24 DUP1 DUP3 ADD SWAP3 PUSH1 0x20 SWAP3 SWAP1 SWAP2 SWAP1 DUP3 SWAP1 SUB ADD DUP2 DUP7 DUP1 EXTCODESIZE ISZERO DUP1 ISZERO PUSH2 0x9D4 JUMPI PUSH1 0x0 DUP1 REVERT JUMPDEST POP GAS STATICCALL ISZERO DUP1 ISZERO PUSH2 0x9E8 JUMPI RETURNDATASIZE PUSH1 0x0 DUP1 RETURNDATACOPY RETURNDATASIZE PUSH1 0x0 REVERT JUMPDEST POP POP POP POP PUSH1 0x40 MLOAD RETURNDATASIZE PUSH1 0x20 DUP2 LT ISZERO PUSH2 0x9FE JUMPI PUSH1 0x0 DUP1 REVERT JUMPDEST POP MLOAD PUSH1 0x40 DUP1 MLOAD PUSH4 0x1D9DABEF PUSH1 0xE1 SHL DUP2 MSTORE PUSH1 0x4 DUP2 ADD DUP6 SWAP1 MSTORE SWAP1 MLOAD PUSH1 0x1 PUSH1 0x1 PUSH1 0xA0 SHL SUB SWAP1 SWAP3 AND SWAP2 PUSH4 0x3B3B57DE SWAP2 PUSH1 0x24 DUP1 DUP3 ADD SWAP3 PUSH1 0x20 SWAP3 SWAP1 SWAP2 SWAP1 DUP3 SWAP1 SUB ADD DUP2 DUP7 DUP1 EXTCODESIZE ISZERO DUP1 ISZERO PUSH2 0x81E JUMPI PUSH1 0x0 DUP1 REVERT JUMPDEST PUSH1 0x2 DUP2 ADD SLOAD PUSH2 0xA61 SWAP1 PUSH3 0x15180 PUSH4 0xFFFFFFFF PUSH2 0x8C7 AND JUMP JUMPDEST TIMESTAMP GT ISZERO PUSH2 0xA9F JUMPI TIMESTAMP PUSH1 0x2 DUP3 ADD SSTORE DUP1 SLOAD PUSH1 0x1 DUP3 ADD SSTORE PUSH1 0x40 MLOAD PUSH32 0xE93BC25276D408D390778E7A8B926F2F67209C43ED540081B951FE128F0D3CD2 SWAP1 PUSH1 0x0 SWAP1 LOG1 JUMPDEST POP JUMP INVALID PUSH4 0x6F6E6669 PUSH19 0x6D65642F7375626D6974746564206C696D6974 KECCAK256 PUSH14 0x69736D617463686F776E65722063 PUSH2 0x6E6E PUSH16 0x742062652073657420746F207A65726F KECCAK256 PUSH2 0x6464 PUSH19 0x657373A265627A7A7231582029F0B0ECA1CCB8 KECCAK256 ADDMOD 0xB2 0xFC PUSH15 0xF732A75B7FA928A2754A4F390B46C0 0xC4 DUP1 PUSH4 0x75F6473 PUSH16 0x6C634300051100320000000000000000 "
		},
		"gasEstimates": {
			"creation": {
				"codeDepositCost": "568800",
				"executionCost": "41442",
				"totalCost": "610242"
			},
			"external": {
				"confirmSpendLimitUpdate(uint256)": "infinite",
				"controllerNode()": "1064",
				"ensRegistry()": "1060",
				"isTransferable()": "1050",
				"owner()": "1082",
				"renounceOwnership()": "24150",
				"setSpendLimit(uint256)": "infinite",
				"spendLimitAvailable()": "infinite",
				"spendLimitControllerConfirmationRequired()": "1054",
				"spendLimitPending()": "999",
				"spendLimitValue()": "1065",
				"submitSpendLimitUpdate(uint256)": "infinite",
				"transferOwnership(address,bool)": "infinite"
			},
			"internal": {
				"_initializeSpendLimit(uint256)": "infinite"
			}
		},
		"methodIdentifiers": {
			"confirmSpendLimitUpdate(uint256)": "eadd3cea",
			"controllerNode()": "e2b4ce97",
			"ensRegistry()": "7d73b231",
			"isTransferable()": "2121dc75",
			"owner()": "8da5cb5b",
			"renounceOwnership()": "715018a6",
			"setSpendLimit(uint256)": "3c672eb7",
			"spendLimitAvailable()": "5d2362a8",
			"spendLimitControllerConfirmationRequired()": "bcb8b74a",
			"spendLimitPending()": "027ef3eb",
			"spendLimitValue()": "9b0dfd27",
			"submitSpendLimitUpdate(uint256)": "21ce918d",
			"transferOwnership(address,bool)": "b242e534"
		}
	},
	"abi": [
		{
			"anonymous": false,
			"inputs": [
				{
					"indexed": false,
					"internalType": "address",
					"name": "_ensRegistry",
					"type": "address"
				}
			],
			"name": "ENSSetRegistry",
			"type": "event"
		},
		{
			"anonymous": false,
			"inputs": [
				{
					"indexed": false,
					"internalType": "address",
					"name": "_locked",
					"type": "address"
				}
			],
			"name": "LockedOwnership",
			"type": "event"
		},
		{
			"anonymous": false,
			"inputs": [
				{
					"indexed": false,
					"internalType": "address",
					"name": "_sender",
					"type": "address"
				},
				{
					"indexed": false,
					"internalType": "uint256",
					"name": "_amount",
					"type": "uint256"
				}
			],
			"name": "SetSpendLimit",
			"type": "event"
		},
		{
			"anonymous": false,
			"inputs": [
				{
					"indexed": false,
					"internalType": "uint256",
					"name": "_amount",
					"type": "uint256"
				}
			],
			"name": "SubmittedSpendLimitUpdate",
			"type": "event"
		},
		{
			"anonymous": false,
			"inputs": [
				{
					"indexed": false,
					"internalType": "address",
					"name": "_from",
					"type": "address"
				},
				{
					"indexed": false,
					"internalType": "address",
					"name": "_to",
					"type": "address"
				}
			],
			"name": "TransferredOwnership",
			"type": "event"
		},
		{
			"constant": false,
			"inputs": [
				{
					"internalType": "uint256",
					"name": "_amount",
					"type": "uint256"
				}
			],
			"name": "confirmSpendLimitUpdate",
			"outputs": [],
			"payable": false,
			"stateMutability": "nonpayable",
			"type": "function"
		},
		{
			"constant": true,
			"inputs": [],
			"name": "controllerNode",
			"outputs": [
				{
					"internalType": "bytes32",
					"name": "",
					"type": "bytes32"
				}
			],
			"payable": false,
			"stateMutability": "view",
			"type": "function"
		},
		{
			"constant": true,
			"inputs": [],
			"name": "ensRegistry",
			"outputs": [
				{
					"internalType": "address",
					"name": "",
					"type": "address"
				}
			],
			"payable": false,
			"stateMutability": "view",
			"type": "function"
		},
		{
			"constant": true,
			"inputs": [],
			"name": "isTransferable",
			"outputs": [
				{
					"internalType": "bool",
					"name": "",
					"type": "bool"
				}
			],
			"payable": false,
			"stateMutability": "view",
			"type": "function"
		},
		{
			"constant": true,
			"inputs": [],
			"name": "owner",
			"outputs": [
				{
					"internalType": "address payable",
					"name": "",
					"type": "address"
				}
			],
			"payable": false,
			"stateMutability": "view",
			"type": "function"
		},
		{
			"constant": false,
			"inputs": [],
			"name": "renounceOwnership",
			"outputs": [],
			"payable": false,
			"stateMutability": "nonpayable",
			"type": "function"
		},
		{
			"constant": false,
			"inputs": [
				{
					"internalType": "uint256",
					"name": "_amount",
					"type": "uint256"
				}
			],
			"name": "setSpendLimit",
			"outputs": [],
			"payable": false,
			"stateMutability": "nonpayable",
			"type": "function"
		},
		{
			"constant": true,
			"inputs": [],
			"name": "spendLimitAvailable",
			"outputs": [
				{
					"internalType": "uint256",
					"name": "",
					"type": "uint256"
				}
			],
			"payable": false,
			"stateMutability": "view",
			"type": "function"
		},
		{
			"constant": true,
			"inputs": [],
			"name": "spendLimitControllerConfirmationRequired",
			"outputs": [
				{
					"internalType": "bool",
					"name": "",
					"type": "bool"
				}
			],
			"payable": false,
			"stateMutability": "view",
			"type": "function"
		},
		{
			"constant": true,
			"inputs": [],
			"name": "spendLimitPending",
			"outputs": [
				{
					"internalType": "uint256",
					"name": "",
					"type": "uint256"
				}
			],
			"payable": false,
			"stateMutability": "view",
			"type": "function"
		},
		{
			"constant": true,
			"inputs": [],
			"name": "spendLimitValue",
			"outputs": [
				{
					"internalType": "uint256",
					"name": "",
					"type": "uint256"
				}
			],
			"payable": false,
			"stateMutability": "view",
			"type": "function"
		},
		{
			"constant": false,
			"inputs": [
				{
					"internalType": "uint256",
					"name": "_amount",
					"type": "uint256"
				}
			],
			"name": "submitSpendLimitUpdate",
			"outputs": [],
			"payable": false,
			"stateMutability": "nonpayable",
			"type": "function"
		},
		{
			"constant": false,
			"inputs": [
				{
					"internalType": "address payable",
					"name": "_account",
					"type": "address"
				},
				{
					"internalType": "bool",
					"name": "_transferable",
					"type": "bool"
				}
			],
			"name": "transferOwnership",
			"outputs": [],
			"payable": false,
			"stateMutability": "nonpayable",
			"type": "function"
		}
	]
}